HTL                    IN10000012  2209202322092023        5820290000        5520920000         299370000        5820290000        5520920000         29937000012403Invoice        MUR                        100000STD                                               
DTLIN10000012   09153702971                    25042               SHLD        50042           5820290000        5820290000         299370000        5820290000        5820290000         299370000STD                                               MUR                   100000DR
DTLIN10000012   09153702971                    50042               ATK AF                      3525120000        3525120000                 0        3525120000        3525120000                 0ZER                                               MUR                   100000CR
DTLIN10000012   09153702971                    50042               TTX TAX                     1895800000        1895800000                 0        1895800000        1895800000                 0ZER                                               MUR                   100000CR
DTLIN10000012   09153702971                    26060092                                         284370000         284370000                 0         284370000         284370000                 0ZER                                               MUR                   100000CR
DTLIN10000012   09153702971                    62121               ATK                          100000000         100000000                 0         100000000         100000000                 0STD                                               MUR                   100000CR
DTLIN10000012   09153702971                    26060092                                          15000000          15000000                 0          15000000          15000000                 0STD                                               MUR                   100000CR
HTL                    IN10000010  2209202322092023        9365430000        9245700000         119730000        9365430000        9245700000         11973000012403Invoice        MUR                        100000STD                                               
DTLIN10000010   09153702967                    25042               SHLD        50042           9365430000        9365430000         119730000        9365430000        9365430000         119730000STD                                               MUR                   100000DR
DTLIN10000010   09153702967                    50042               ATK AF                      8447500000        8447500000                 0        8447500000        8447500000                 0ZER                                               MUR                   100000CR
DTLIN10000010   09153702967                    50042               TTX TAX                      798200000         798200000                 0         798200000         798200000                 0ZER                                               MUR                   100000CR
DTLIN10000010   09153702967                    26060092                                         119730000         119730000                 0         119730000         119730000                 0ZER                                               MUR                   100000CR
DTLIN10000010   09153702967                    62121               ATK                                  0                 0                 0                 0                 0                 0STD                                               MUR                   100000CR
HTL                    IN10000009  2209202322092023        9365430000        9245700000         119730000        9365430000        9245700000         11973000012403Invoice        MUR                        100000STD                                               
DTLIN10000009   09153702967                    25042               SHLD        50042           9365430000        9365430000         119730000        9365430000        9365430000         119730000STD                                               MUR                   100000DR
DTLIN10000009   09153702967                    50042               ATK AF                      8447500000        8447500000                 0        8447500000        8447500000                 0ZER                                               MUR                   100000CR
DTLIN10000009   09153702967                    50042               TTX TAX                      798200000         798200000                 0         798200000         798200000                 0ZER                                               MUR                   100000CR
DTLIN10000009   09153702967                    26060092                                         119730000         119730000                 0         119730000         119730000                 0ZER                                               MUR                   100000CR
DTLIN10000009   09153702967                    62121               ATK                                  0                 0                 0                 0                 0                 0STD                                               MUR                   100000CR
HTL                    IN10000008  2209202322092023        9365430000        9245700000         119730000        9365430000        9245700000         11973000012403Invoice        MUR                        100000STD                                               
DTLIN10000008   09153702967                    25042               SHLD        50042           9365430000        9365430000         119730000        9365430000        9365430000         119730000STD                                               MUR                   100000DR
DTLIN10000008   09153702967                    50042               ATK AF                      8447500000        8447500000                 0        8447500000        8447500000                 0ZER                                               MUR                   100000CR
DTLIN10000008   09153702967                    50042               TTX TAX                      798200000         798200000                 0         798200000         798200000                 0ZER                                               MUR                   100000CR
DTLIN10000008   09153702967                    26060092                                         119730000         119730000                 0         119730000         119730000                 0ZER                                               MUR                   100000CR
DTLIN10000008   09153702967                    62121               ATK                                  0                 0                 0                 0                 0                 0STD                                               MUR                   100000CR
HTL                    IN10000011  2209202322092023        9365430000        9245700000         119730000        9365430000        9245700000         11973000012403Invoice        MUR                        100000STD                                               
DTLIN10000011   09153702967                    25042               SHLD        50042           9365430000        9365430000         119730000        9365430000        9365430000         119730000STD                                               MUR                   100000DR
DTLIN10000011   09153702967                    50042               ATK AF                      8447500000        8447500000                 0        8447500000        8447500000                 0ZER                                               MUR                   100000CR
DTLIN10000011   09153702967                    50042               TTX TAX                      798200000         798200000                 0         798200000         798200000                 0ZER                                               MUR                   100000CR
DTLIN10000011   09153702967                    26060092                                         119730000         119730000                 0         119730000         119730000                 0ZER                                               MUR                   100000CR
DTLIN10000011   09153702967                    62121               ATK                                  0                 0                 0                 0                 0                 0STD                                               MUR                   100000CR
HTL                    CR10000007  2109202322092023        9365430000        9245700000         119730000        9365430000        9245700000         11973000012403Credit Note    MUR                        100000STD                                               
DTLCR10000007   09153702967                    25042               SHLD        50042           9365430000        9365430000         119730000        9365430000        9365430000         119730000STD                                               MUR                   100000CR
DTLCR10000007   09153702967                    50042               ATK AF                      8447500000        8447500000                 0        8447500000        8447500000                 0ZER                                               MUR                   100000DR
DTLCR10000007   09153702967                    50042               TTX TAX                      798200000         798200000                 0         798200000         798200000                 0ZER                                               MUR                   100000DR
DTLCR10000007   09153702967                    26060092                                         119730000         119730000                 0         119730000         119730000                 0ZER                                               MUR                   100000DR
DTLCR10000007   09153702967                    62121               ATK                                  0                 0                 0                 0                 0                 0STD                                               MUR                   100000DR
HTL                    IN10000006  1909202322092023       11862535000       11568400000         294135000       11862535000       11568400000         29413500012403Invoice        MUR                        100000STD                                               
DTLIN10000006   09153695143                    25042               SHLD        50042          11862535000       11862535000         294135000       11862535000       11862535000         294135000STD                                               MUR                   100000DR
DTLIN10000006   09153695143                    50042               ATK AF                      9607500000        9607500000                 0        9607500000        9607500000                 0ZER                                               MUR                   100000CR
DTLIN10000006   09153695143                    50042               TTX TAX                     1960900000        1960900000                 0        1960900000        1960900000                 0ZER                                               MUR                   100000CR
DTLIN10000006   09153695143                    26060092                                         294135000         294135000                 0         294135000         294135000                 0ZER                                               MUR                   100000CR
DTLIN10000006   09153695143                    62121               ATK                                  0                 0                 0                 0                 0                 0STD                                               MUR                   100000CR
HTL                    IN10000006  1909202322092023       14584015000       14168785000         415230000       14584015000       14168785000         41523000012403Invoice        MUR                        100000STD                                               
DTLIN10000006   19153695143                    25042               SHLD        50042          14584015000       14584015000         415230000       14584015000       14584015000         415230000STD                                               MUR                   100000DR
DTLIN10000006   19153695143                    50042               ATK AF                      1793085000        1793085000                 0        1793085000        1793085000                 0ZER                                               MUR                   100000CR
DTLIN10000006   19153695143                    50042               TTX TAX                      807300000         807300000                 0         807300000         807300000                 0ZER                                               MUR                   100000CR
DTLIN10000006   19153695143                    26060092                                         121095000         121095000                 0         121095000         121095000                 0ZER                                               MUR                   100000CR
DTLIN10000006   19153695143                    62121               ATK                                  0                 0                 0                 0                 0                 0STD                                               MUR                   100000CR
